:020000040800F2
:10000000E06F0020290200083702000839020008CA
:100010003B0200083D0200083F020008000000000B
:100020000000000000000000000000004102000885
:1000300043020008000000004502000847020008D3
:100040004902000849020008490200084902000864
:100050004902000849020008490200084902000854
:100060004902000849020008490200084902000844
:100070004902000849020008490200084902000834
:100080004902000849020008490200084902000824
:100090004902000849020008490200084902000814
:1000A0004902000849020008490200084902000804
:1000B000CD3600084902000849020008490200083C
:1000C00049020008490200084902000849020008E4
:1000D00049020008490200084902000849020008D4
:1000E00049020008490200084902000849020008C4
:1000F00049020008490200084902000849020008B4
:1001000049020008490200084902000849020008A3
:100110004902000849020008393C00084902000869
:100120004902000849020008490200084902000883
:100130004902000849020008490200084902000873
:100140004902000849020008490200084902000863
:100150004902000849020008490200084902000853
:100160004902000849020008490200084902000843
:100170004902000849020008490200084902000833
:10018000490200084902000800F002F800F03CF8BB
:100190000AA090E8000C82448344AAF10107DA45E2
:1001A00001D100F031F8AFF2090EBAE80F0013F0F8
:1001B000010F18BFFB1A43F00103184798550000C0
:1001C000B8550000103A24BF78C878C1FAD8520751
:1001D00024BF30C830C144BF04680C6070470000C1
:1001E0000023002400250026103A28BF78C1FBD840
:1001F000520728BF30C148BF0B6070471FB505F0DC
:1002000098FA1FBD10B510BD00F0EBF81146FFF7CE
:10021000F5FF04F0BBF900F009F903B4FFF7F2FFB2
:1002200003BC00F011F900000B48016841F47001B3
:1002300001600A480047FEE7FEE7FEE7FEE7FEE74B
:10024000FEE7FEE7FEE7FEE7FEE70000044805499B
:10025000034A054B7047000088ED00E08901000863
:10026000E06B0020E06F0020E06B0020032A40F2EA
:10027000308010F0030C00F0158011F8013BBCF148
:10028000020F624498BF11F801CB00F8013B38BF60
:1002900011F8013BA2F1040298BF00F801CB38BF6E
:1002A00000F8013B11F0030300F06980083AC0F048
:1002B000088051F8043B083A51F804CBA0E8081034
:1002C000F5E7121D5CBF51F8043B40F8043BAFF367
:1002D0000080D20724BF11F8013B11F801CB48BFC1
:1002E00011F8012B24BF00F8013B00F801CB48BFF7
:1002F00000F8012B704700004FF0013C50F8042B30
:1003000051F8043B9A4221D1A2EB0C03934313EA28
:10031000CC1317D150F8042B51F8043B9A4215D155
:10032000A2EB0C03934313EACC130BD150F8042B2C
:1003300051F8043B9A4209D1A2EB0C03934313EA10
:10034000CC13DBD04FF00000704700BFD01A01BAC9
:10035000B1FA81F101F0180122FA01F0CB40C1F1AC
:100360002001DBB2C0B2C01A2CFA01F3D11A9143BA
:1003700011EAC311E6D1704770477047704710B556
:10038000203AC0F00B80B1E81850203AA0E818508D
:10039000B1E81850A0E81850BFF4F5AF5FEA027C4E
:1003A00024BFB1E81850A0E8185044BF18C918C0BD
:1003B000BDE810405FEA827C24BF51F8043B40F85E
:1003C000043B08BF7047D20728BF31F8023B48BF43
:1003D00011F8012B28BF20F8023B48BF00F8012B81
:1003E0007047754600F02CF8AE4605006946534646
:1003F00020F00700854618B020B5FFF727FFBDE8BD
:1004000020404FF000064FF000074FF000084FF07B
:10041000000B21F00701AC46ACE8C009ACE8C0090C
:10042000ACE8C009ACE8C0098D46704710B5044679
:10043000AFF300802046BDE81040FFF7EEBE00009D
:1004400000487047806B002001491820ABBEFEE7D2
:1004500026000200704710B500F09AFB10BD70B581
:1004600006460C46154608E03046721C96B200F06F
:1004700007F804F8010B681E85B2002DF4D170BD99
:1004800070B50446002600F037FC2546E11704EB62
:1004900011610912A02202EB4101C8B200F0F8FB81
:1004A00000F076FCE11704EB11610912A4EB0121C5
:1004B000C8B200F0EDFB00F06BFC00F01DFCA120C9
:1004C00000F0E6FB00F064FC002000F0ABFB064609
:1004D00000F038FC304670BD70B505460C46164637
:1004E00006E02178284600F009F8681C85B2641CF3
:1004F000301EA6F101018EB2F3D170BD70B5044675
:100500000E4600F0F9FB2546E11704EB11610912D4
:10051000A02202EB4101C8B200F0BAFB00F038FCA7
:10052000E11704EB11610912A4EB0121C8B200F03C
:10053000AFFB00F02DFC304600F0AAFB00F028FCD9
:1005400000F000FC0A2003F053FF70BD2DE9F041DC
:1005500003460C465F1CDFF854C0CCEB57054FF048
:10056000010CCCEB57071744DFF840C007EB0C0633
:100570001F1B7F1C03F1010CB7FBFCF80CFB18716F
:10058000A94201D208460EE05F1CB1EB570F01D81B
:10059000284608E0B14203D89F1B7F1C784202E046
:1005A0005F1A7F1C7842BDE8F081000020A107009F
:1005B00010B502460B460020002103E0545C604069
:1005C0004C1CA1B29942F9DB10BD10B502460B4696
:1005D0000020002103E0545C60404C1CA1B2994211
:1005E000F9DB10BD2DE9F04102460B4800790A4FB6
:1005F0003F6807EB870700EB8703002402EB8200CC
:1006000001EB80050026EF1A76EB040002D30020F0
:10061000BDE8F0810120FBE7980000201CB50D48E3
:10062000006840F008000B49086001200A49086092
:1006300000900023024604210190084800F0A4F82D
:1006400001200749C1F8880202F042F8022002F0B6
:10065000AFF81CBD3038024088824142000C024095
:100660000080414270B50446B4F5806F01DB40F272
:10067000FF344FF6FF7000EA8414250AE6B200202A
:100680000749086002F07CF8284602F079F8304605
:1006900002F076F801200349C1F8880270BD00001D
:1006A0008882414200804142F0B503460C4625490C
:1006B0002448A03806220D6825F001050D6004E0ED
:1006C0000D6805F0010505B900E0F9E700BF0D1A56
:1006D000103D1826B5FBF6F5EAB2062A0ADBC56816
:1006E000961F06EB4606760010363D27B7403D4381
:1006F000C56020E0042A09DBC568161F06EB460624
:1007000077003D26BE403543C56014E0022A0ADB6F
:100710008568961E06EB4606760010363D27B740E4
:100720003D43856007E0856802EB420677003D2681
:10073000BE4035438560CB604C600D6845F00105D7
:100740000D60F0BDA064024030B5CC1000F1200374
:1007500053F824304C07E50E0F24AC40A343CD10D2
:1007600000F1200444F82530CC1000F1200353F8A8
:1007700024304C07E40E02FA04F42343CD1000F1B8
:10078000200444F8253030BD2DE9F0470C46DDE962
:100790000867002100258C4600BF60E04FF001088B
:1007A00008FA01F504EA050CAC4557D1D0F80080F1
:1007B0004FEA410A4FF0030909FA0AF928EA090841
:1007C000C0F80080D0F800804FEA410902FA09F928
:1007D00048EA0908C0F80080012A01D0022A27D17E
:1007E000D0F808804FEA410A4FF0030909FA0AF9E4
:1007F00028EA0908C0F80880D0F808804FEA4109C3
:1008000006FA09F948EA0908C0F80880D0F8049007
:100810004FF0010808FA01F829EA0809C0F8049025
:10082000D0F8048003FA01F948EA0908C0F8048006
:10083000D0F80C804FEA410A4FF0030909FA0AF98F
:1008400028EA0908C0F80C80D0F80C804FEA41096A
:1008500007FA09F948EA0908C0F80C80491C102970
:100860009CD3BDE8F087000018B10121034A116054
:1008700002E00021014A11607047000094024142E9
:1008800010B529480068C4B294B9284800780128F6
:1008900020D001202649C8722449087008460078F3
:1008A000FFF7E2FF00202349088002F049FA11E037
:1008B0001E48007801280DD100201D49C8721B492F
:1008C000087008460078FFF7CFFF0020194908801C
:1008D00002F036FA1648C07A012821D1154800885E
:1008E000401C1449088008460088B0F5167F0ADBD2
:1008F00008460088B0F5487F05DA4FF44870088054
:100900000020FFF7B1FF0B48008840F222318842F7
:1009100009DD0020074908800120FFF7A5FF02E05C
:1009200000200449088010BD2402414295000020A7
:1009300098000020960000201CB51348006840F085
:100940000400114908600020104908600090034627
:100950000122202101900E48FFF716FF0A48006887
:1009600040F0040008490860002000900346024659
:10097000491501900648FFF707FF00200549C87296
:10098000FFF772FF1CBD0000303802409402414264
:10099000000802409800002010B504462C22214691
:1009A0000020FFF75CFD20680A2830D32068B0F5EE
:1009B0007A7F2CD8606810B16068012827D1A068C0
:1009C00010B1A068012822D1E06810B1E0680128C8
:1009D0001DD1206910B12069012818D1606910B1BA
:1009E0006069012813D1E06910B1E06901280ED1D6
:1009F000206A10B1206A012809D1606A10B1606ACA
:100A0000012804D1A06AC0B1A06A012815D040F223
:100A10001A202060012060600020A060E06020615A
:100A200060610748A0610120E061206200206062EF
:100A3000A0622C222146FFF74FFD012010BD0000CF
:100A4000FFB3C40430B503460D461446002208E047
:100A500005B908E0985C2C2801D1681EC5B2501C6D
:100A6000C2B2C82AF4DB00BFC82A01DBFF2030BDB8
:100A7000002111E05018185C2C2807D05018185C81
:100A80002A2803D05018185C2E2800D106E05018F0
:100A9000185C6054481CC1B23229EBDB00BF32291C
:100AA00001DBFF20E3E7002060540846DFE730B5B4
:100AB00003460D461446002208E005B908E0985C9C
:100AC0002C2801D1681EC5B2501CC2B2C82AF4DB62
:100AD00000BFC82A01DBFF2030BD00210DE0501807
:100AE000185C2C2803D05018185C2A2800D106E086
:100AF0005018185C6054481CC1B23229EFDB00BFAB
:100B0000322901DBFF20E7E7002060540846E3E7D5
:100B100000B500200849086001F0C6FE024600202A
:100B200001F0C2FE034601200449C1F8B00243EAC5
:100B30000222D210104600BDB082404200804042E6
:100B400010B500200F4908600F48006820F44030BD
:100B50000D4908600846006840F4803008600020B5
:100B60000A49C1F8A002022003F05EFC01200549F9
:100B70000860022003F058FC00200449C1F8A402D8
:100B800010BD0000A48240420004024000804042A8
:100B90001CB50C48006840F002000A4908600120BA
:100BA000022100230246CDE900104FF440710648AF
:100BB000FFF7EAFD0120054908600549C1F8A002D8
:100BC0001CBD00003038024000040240A4824042B4
:100BD0000080404210B500200F4908600F480068AF
:100BE00020F440300D4908600846006840F4803029
:100BF000086001200A49C1F8A002022003F014FC99
:100C0000012005490860022003F00EFC0020044981
:100C1000C1F8A40210BD0000A482404200040240BA
:100C20000080404270B5054600241648006820F454
:100C3000403014490860084600680860002616E045
:100C4000002011490860022003F0EEFB01200F494B
:100C5000C1F8A4026006040E0B488438006808B18D
:100C6000601CC4B2012003F0DFFB701CC6B2082E6A
:100C7000E6DB15B9FFF7AEFF01E0FFF761FF2046A5
:100C800070BD000000040240A48240420080404247
:100C900070B504461548006820F4403013490860D8
:100CA0000846006840F48030086000201049086061
:100CB000002517E0E0090E49091F08606006040ED0
:100CC000022003F0B1FB01200A49C1F8A40202206E
:100CD00003F0AAFB002006490860022003F0A4FBF1
:100CE000681CC5B2082DE5DB70BD000000040240A1
:100CF000A48240420080404210B50F48006820F4B2
:100D000040300D4908600846006840F480300860B3
:100D100001200A4908600A49C1F8A402042003F02E
:100D200083FB002005490860042003F07DFB0020C0
:100D30000349C1F8A40210BD00040240A082404251
:100D40000080404210B50F48006820F440300D4943
:100D500008600846006840F48030086000200A49B6
:100D600008600A49C1F8A002042003F05DFB0120DD
:100D7000054908600549C1F8A002042003F054FBAE
:100D800010BD000000040240A482404200804042A6
:100D900010B500241348006820F440301149086061
:100DA00008460068086001200F49086003F03CFB1A
:100DB00001200E49C1F8A40203F036FB07E0601CD5
:100DC000C4B2FA2C03DDFFF7BDFF012010BD0648B9
:100DD000803800680028F2D10349091D086000BF6F
:100DE000F4E7000000040240A0824042008040423C
:100DF00010B5FFF730FB2948FFF7CEFD002028494A
:100E0000086008714871C880244800880881002063
:100E10008872C872C86008749FED220B084680ED86
:100E2000060B9FED200B80ED080B00208862C86246
:100E3000086348638863C86308641848007981F8C8
:100E400044001648007A81F845001448007B81F878
:100E500046001248007C81F847001048007D81F868
:100E600048000E488069C8640C48007F81F8500033
:100E70000A4890F8200081F85100084890F82400B2
:100E800081F85200054890F8280081F85300074A7D
:100E9000102148F2084003F01EFB10BD5401002051
:100EA00098000020000000000000000080010020E9
:100EB0001CB51D48006840F001001B490860002077
:100EC000009003460122114601901848FFF75CFC90
:100ED00000201749086001201649C1F88002FFF779
:100EE0009DFB15490889FFF7BDFBFFF725FDFFF7BF
:100EF000C7FC00F041F803F041FBFA2003F078FA58
:100F000002F05AFE4FF4E131192003F0B5F801F078
:100F100017FF4FF41651192002F004FF03F016FBDF
:100F200003F0FAFA1CBD0000303802400000024015
:100F30008002404200004042980000200146CA174B
:100F400001EB92729210A1EB820292B9642091FBA4
:100F5000F0F200FB121050B94FF4C87091FBF0F2A0
:100F600000FB121008B9012070470020FCE70120A7
:100F7000FAE70020F8E700000CB50E48006840F0E2
:100F800001000C49086000200090034601224FF444
:100F9000C05101900848FFF7F7FB0020074908609F
:100FA0000749C1F8AC020120044908600449C1F8AE
:100FB000AC020CBD3038024000000240B00240429A
:100FC000000040422A48007818B9012029490860E9
:100FD00020E027480078012803D100202549086037
:100FE00018E02548007818B900202249086002E07E
:100FF00001202049086020480078401C1E490870E4
:10100000084600781A49097890FBF1F201FB1200BA
:10101000194908701648407820B901201549091F60
:10102000086023E012484078012804D100201149CB
:10103000091F08601AE01048407820B900200D49C7
:10104000091F086003E001200A49091F08600A48D7
:101050004078401C0849487008464078044949785F
:1010600090FBF1F201FB1200034948707047000049
:101070005E000020B0024042600000202DE9F041F7
:101080000746884614461D46284600F033F8C5F149
:10109000040007FA00F60F20284100EA0800064382
:1010A00006F00F06E21704EBD2625211920002F131
:1010B000E022D2F800212146E31704EBD3635B1151
:1010C000A4EB431C012303FA0CF31A432046E31755
:1010D00004EBD3635B119B0003F1E023C3F8002111
:1010E0000348005D40EA061001490855BDE8F0815B
:1010F00000E400E00146072323EA01021202054B47
:1011000018684FF6FF031840034B18431043014B78
:10111000186070470CED00E00000FA054A0A520220
:101120000243014B1A60704708ED00E070B50446B9
:101130000D46542C03D1002401F002FE38E14F2C5F
:1011400018D100242888B0F5806F0BDA28880A2887
:1011500008DB2888974908810889FFF783FA01F09E
:10116000EFFD25E102209449087002224F2001F092
:10117000CBFB1DE1422C10D100248E4890F8450095
:1011800020B100208B4981F8450003E00120894906
:1011900081F8450001F0D4FD0AE1412C10D1002472
:1011A000844890F8440020B10020824981F844002E
:1011B00003E001207F4981F8440001F0C1FDF7E020
:1011C000472C03D1002401F0BBFDF1E0432C10D1EA
:1011D0000024784890F8500020B10020754981F82B
:1011E000500003E00120734981F8500001F0A8FD90
:1011F000DEE0502C10D100246E4890F8510020B150
:1012000000206C4981F8510003E00120694981F810
:10121000510001F095FDCBE0572C10D1002465481A
:1012200090F8520020B10020624981F8520003E09A
:101230000120604981F8520001F082FDB8E0562C8F
:101240003AD100242E685D4870431421B0FBF1F1BF
:101250005848C06C401C814217D06420B6FBF0F1A6
:1012600000FB116088B94EF6602086420DD8B6F5B5
:101270007A7F0AD3514870431421B0FBF1F0401E2D
:101280004C49C86401204E490870287941280AD188
:10129000484890F8460060B90120464981F8460068
:1012A0004749087005E00020424981F8460044495A
:1012B000087001F045FD7BE04E2C10D100243D4824
:1012C00090F8470020B100203A4981F8470003E038
:1012D0000120384981F8470001F032FD68E04D2CCB
:1012E00010D10024334890F8480020B10020314943
:1012F00081F8480003E001202E4981F8480001F000
:101300001FFD55E0592C10D100242A4890F85300B5
:1013100020B10020274981F8530003E0012025492E
:1013200081F8530001F00CFD42E04C2C06D1002462
:1013300024480178244801F0AFFB39E05A2C23D12E
:10134000002440F201201B490881012081F844005B
:10135000002081F8450081F8460081F8470001200F
:1013600081F848001948C864012081F8500081F8CC
:101370005100002081F8520081F85300084602F025
:1013800071F801F0DDFC13E04B2C06D10024094874
:1013900002F068F801F0D4FC0AE0552C03D10024D7
:1013A00001F0B4FD04E0482C02D1002401F064FCFB
:1013B000204670BD980000200000002040420F0031
:1013C0003800002001000020F0000020FFB3C4041A
:1013D00010B52DED028B002008EE100A9FED220AB9
:1013E000F0EE408A214890F8480040B92048007843
:1013F00068B100201E49087002F046F907E01C4859
:10140000007820B901201A49087002F01BF9FFF793
:101410007FFB08EE100AB8EEC80ADFED160A20EED0
:10142000200AF0EE408AB2EE040A28EE800ABDEEF1
:10143000C00A10EE100A00B20C49C880FFF720FA6B
:1014400003F022FC0948C07A022809D10A48017831
:101450000A480068FFF7C6F8012801D10349C8729D
:10146000BDEC028B10BD00000000000098000020C1
:101470003B0000200000803D3400002030000020B0
:101480002DE9F0410025FE480078012810D0FD48E4
:101490000178FD480068FFF7A5F8012808D1FB484E
:1014A000007828B10020F94908700120F44908703B
:1014B000F7480068C0F58060F6490880D2E1F64838
:1014C0000088F4490988884200D1CEE1F348F24906
:1014D0000988445CF0480088401CEF49088008886F
:1014E000C11700EB91518912A0EB8121EA4A1180CA
:1014F000E6480078092874D2DFE800F0052E7B99D1
:10150000AA737373FD00242C1FD10020E4490880C6
:10151000E448E549098800EB4120E1490988445441
:10152000DF480088401CDE4908800020D44908704C
:10153000DE480068401CD4490860DC480079D14985
:1015400008700120D149087005E00120CC490870DD
:101550000020CE49087082E1D248D349098800EBC7
:101560004120CF4909884454CD480088401CCC49CB
:1015700008800846008806283ADBCA48CA49098814
:1015800000EB4120C07852280FD1C648C6490988CF
:1015900000EB412000794D2807D1C248C249098893
:1015A00000EB41204079432817D0BE48BE49098846
:1015B00000EB4120C078472814D1BA48BA490988BD
:1015C00000EB4120007953280CD1B648B649098870
:1015D00000EB41204079562804D10220AB49087025
:1015E00006E03BE10120A64908700020A7490870E9
:1015F00035E1AC48AC49098800EB4120A84909888D
:101600004454A7480088401CA54908802A2C02D1D0
:1016100003209E490870A2480088B0F5FA7F05DBD8
:1016200001209749087000209849087017E19D48EB
:101630009D49098800EB41209949098844549848FC
:101640000088401C9649088004209049087006E1F3
:1016500094489549098800EB4120914909884454F0
:101660008F480088401C8E4908808E488E49098822
:1016700000EB41218A480088801E085C30280ADB84
:1016800088488949098800EB412185480088801EE7
:10169000085C392815DD83488349098800EB41211E
:1016A0007F480088801E085C41287DDB7D487E499C
:1016B000098800EB41217A480088801E085C462892
:1016C00072DC78487849098800EB41217448008829
:1016D000401E085C30280ADB72487349098800EB19
:1016E00041216F480088401E085C392817DD6D488D
:1016F0006D49098800E0B0E000EB412168480088AE
:10170000401E085C412867DB66486749098800EB92
:10171000412163480088401E085C46285CDC614823
:101720006149098800EB41215D480088801E085C02
:10173000302816DB5B485C49098800EB412158489A
:101740000088801E085C39280BDC564856490988F9
:1017500000EB412152480088801E085C3038C6B238
:101760000AE050485049098800EB41214C48008864
:10177000801E085C3738C6B24A484B49098800EBDE
:10178000412147480088401E085C302818DB454846
:101790004549098800EB412141480088401E085C0A
:1017A00039280DDC3F4800E016E03F49098800EB8E
:1017B00041213B480088401E085C3038C7B211E028
:1017C00038483949098800EB412135480088401ED6
:1017D000085C3738C7B205E00120294908700020AD
:1017E0002A49087007EB0610C6B22D4A1288121F4C
:1017F00091B22C4A2C4B1B8802EB4322501CFEF763
:10180000E4FEB04222D127482749098800EB412055
:1018100023490988445422480088401C20490880F4
:10182000084601781F48204A128800EB42200170C8
:101830001D480088401C1C49088008460088142167
:1018400090FBF1F201FB12001749088001200C49BE
:10185000087000200D49087001E000E000BF00BFE3
:10186000681C85B2142DFFF62AAE00BF0848006838
:10187000C0F58060074908800846008818E000002D
:1018800094000020900000208C0000209100002097
:10189000446402408600002084000020803F002035
:1018A00092000020804300208A0000209800002041
:1018B00000F58060054A1288811AC81701EB905024
:1018C0008012A1EB802080B2BDE8F081840000206E
:1018D00070B50025B6480078012810D0B5480178C9
:1018E000B5480068FEF77EFE012808D1B3480078AD
:1018F00028B10020B14908700120AD490870B048F6
:101900000068C0F50070AF49088037E1AE48008834
:10191000AC490988884200D133E1AC48AA4909881A
:10192000445CA9480088401CA74908800888C11762
:1019300000EBD1514912A0EB4121A34A11809F48ED
:101940000078092878D2DFE800F0052E48627FABE6
:10195000CBF0EE00242C1FD100209D4908809D482B
:101960009D49098800EB41209949098844549848C9
:101970000088401C9649088000208D4908709748CF
:101980000068401C8C4908609448007989490870B7
:1019900001208A49087005E001208549087000206F
:1019A00086490870E7E0542C10D18A488A49098892
:1019B00000EB412086490988445485480088401C32
:1019C0008349088002207D49087005E0012078499C
:1019D0000870002079490870CDE0502C10D17D4866
:1019E0007D49098800EB41207949098844547848A9
:1019F0000088401C7649088003207049087005E083
:101A000001206B49087000206C490870B3E05A2C23
:101A100013DC412C11DB6F486F49098800EB412032
:101A20006B49098844546A480088401C684908800A
:101A300004206249087006E09CE001205C490870BF
:101A400000205E49087096E0FA2C22DCC82C02DCEB
:101A50006348048005E0A4F1C8004000C830604934
:101A600008805C485C49098800EB41205849098896
:101A7000445457480088401C5549088058480088FD
:101A800018B906204D49087009E005204B49087037
:101A900005E00120464908700020484908706AE0C6
:101AA0004F48008888B14B484B49098800EB4120DA
:101AB00047490988445446480088401C44490880E6
:101AC00047480088401E464908804548008818B9A4
:101AD00006203A49087002E00520384908704AE0BB
:101AE0003C493D4A128801EB422039490988FEF7FA
:101AF0005FFDA04210D137483749098800EB4120EB
:101B000033490988445432480088401C30490880D1
:101B100007202A49087005E00120254908700020A7
:101B20002649087027E024E0FFE70A2C1AD129484B
:101B30002949098800EB4120254909884454244853
:101B40000088401C2249088023480088401C224904
:101B500008800888C11700EB5171C910A0EBC101C2
:101B60001D4A118001201249087000201349087095
:101B700001E000E000BF00BF681C85B20A2DFFF63F
:101B8000C5AE00BF0E480068C0F500700D49088062
:101B90000846008800F500700B4A1288811AC817A1
:101BA00001EBD0504012A1EB402080B270BD00008C
:101BB0007A000020740000207000002075000020D2
:101BC0002C64024066000020640000208005002094
:101BD00076000020800700206A0000209800002086
:101BE0007800002070B5024618480088184D2D88EE
:101BF000A84228D01748164D2D8800EB45200378C1
:101C0000002108E01348124D2D8800EB4520405C70
:101C10005054481C81B29942F4DB0E480C4D2D887B
:101C200000EB452044790A480088401C084D288074
:101C300028460088142590FBF5F605FB1600044D98
:101C40002880204670BD0020FCE700008A000020AC
:101C5000880000208043002070B503462248008899
:101C6000224D2D88A8423DD02148204D2D8800EBE3
:101C700045200079C8280BDB1D481C4D2D8800EB42
:101C800045200079C838FA2505EB400082B205E00E
:101C90001748164D2D8800EB45200279002109E0F8
:101CA0001348124D2D8800EB4525481D285C5854DB
:101CB000481C81B29142F3DB0D480C4D2D8800EB9E
:101CC0004520C47809480088401C084D2880288891
:101CD000C51700EB5575ED10A0EBC505034E35801B
:101CE000204670BD0020FCE76A000020680000204C
:101CF0008007002010B54E4800884E490988884268
:101D00007ED04D48006800F00100002878D14B4893
:101D10004849098800EB41200078242878D14748B9
:101D20004449098800EB41204078502870D143484D
:101D30004049098800EB41208078542868D13F4809
:101D40003C49098800EB4120C0785A2807DC3B4811
:101D50003849098800EB4120C07841280FDA37481C
:101D60003449098800EB4120C0787A2850DC334898
:101D70003049098800EB4120C078612848DB2F48B2
:101D80002C49098800EB41200079FA2840DC2B48D7
:101D90002849098800EB41200079C8280CDB274836
:101DA0002449098800EB41200079C838FA2101EB69
:101DB0004000C01DC4B207E020481E49098800EB5E
:101DC00041200079C01DC4B21C481A49098800EBA3
:101DD0004121601E085C0A281AD1A21E91B2174A3E
:101DE000144B1B8802EB4320FEF7E2FB1349114A18
:101DF000128801EB4222A11E505410490D4A01E005
:101E000014E005E0128801EB42202146FEF74CFC6D
:101E100008480088401C07490880084600881421AB
:101E200090FBF1F201FB12000249088010BD000096
:101E30006C0000206E000020A0640240801700208B
:101E400030B5ADF5017D00241148C07AE8B1FFF747
:101E500017FB01A8FFF7C6FE0446B4B19DF8045075
:101E600024208DF8040001A800F014F88DF8045027
:101E7000074890F85300012806D1432C03D101A84C
:101E800000F09EFD00E000BF00240DF5017D30BD97
:101E9000980000202DE9F0472DED048B92B082468A
:101EA00005AA00215046FEF7CDFD062804D012B049
:101EB000BDEC048BBDE8F08705A9FEA0FEF71CFA77
:101EC00028B105A9FDA0FEF717FA00287ED105AAC2
:101ED00002215046FEF7B6FD012800D0E7E79DF845
:101EE0001400412873D105AA01215046FEF7AAFD2E
:101EF000062800D0DBE79DF8150030389DF8141057
:101F0000303901EB810100EB4100C7B29DF81700A9
:101F100030389DF81610303901EB810100EB41009B
:101F2000C6B29DF8190030389DF81810303901EB11
:101F3000810100EB4100C5B205AA09215046FEF718
:101F400081FD062800D0B2E79DF8150030389DF8D5
:101F50001410303901EB810100EB410000F0FF0962
:101F60009DF8170030389DF81610303901EB8101CB
:101F700000EB410000F0FF089DF8190030389DF893
:101F80001810303901EB810100EB410084B204F5F7
:101F9000FA6084B28DF800508DF801608DF80270FF
:101FA0008DF804908DF80580A4F5FA60C0B28DF824
:101FB0000600ADF80E40684600F030FB049800F5CE
:101FC000E140C049C8600846C07A01E0B8E2B8E222
:101FD000022803D00220C87200F0B2FE05AA032135
:101FE0005046FEF764FD09287ED19DF81500303873
:101FF00000EE100AB8EEC00A9DF81400303800EE6A
:10200000900AF8EEE00AB2EE041A00EE810A10EE31
:10201000101A084603F01CFBAA4AC2E908019DF801
:102020001600303800EE100AB8EEC00AF2EE040ACC
:1020300020EE200A9DF81700303800EE900AF8EEE6
:10204000E00AB7EE001A00EE810A9DF81900303858
:1020500000EE900AF8EEE00A9FED9B1A00EE810A6E
:102060009DF81A00303800EE900AF8EEE00A9FED75
:10207000971A00EE810A9DF81B00303800EE900A96
:10208000F8EEE00A9FED921A00EE810A9DF81C001E
:10209000303800EE900AF8EEE00A9FED8E1A00EE5E
:1020A000810A10EE101A084603F0D2FA41EC180B20
:1020B0009FED890B53EC102B51EC180B02F0C8FE6E
:1020C00041EC190B7F4890ED081BB0EE410AF0EE91
:1020D000610A53EC102B51EC190B02F005FE794A02
:1020E000C2E9080191E0FFE705AA03215046FEF787
:1020F000DEFC0A287DD19DF81500303800EE100A6C
:10210000B8EEC00A9DF81400303800EE900AF8EEE0
:10211000E00AB2EE041A00EE810A10EE101A084628
:1021200003F096FA674AC2E908019DF816003038B4
:1021300000EE100AB8EEC00AF2EE040A20EE200A01
:102140009DF81700303800EE900AF8EEE00AB7EE7E
:10215000001A00EE810A9DF81900303800EE900A4E
:10216000F8EEE00A9FED581A00EE810A9DF81A0079
:10217000303800EE900AF8EEE00A9FED541A00EEB7
:10218000810A9DF81B00303800EE900AF8EEE00A54
:102190009FED4F1A00EE810A9DF81C00303800EECA
:1021A000900AF8EEE00A9FED4B1A00EE810A9DF8C6
:1021B0001D00303800EE900AF8EEE00A9FED481A54
:1021C00000EE810A10EE101A084603F041FA41ECC5
:1021D000180B9FED410B53EC102B51EC180B02F038
:1021E00037FE41EC190B374890ED081BB0EE410A61
:1021F00000E00AE0F0EE610A53EC102B51EC190BF1
:1022000002F072FD2F4AC2E9080105AA04215046D6
:10221000FEF718FC9DF814004E2805D1294890EDD2
:10222000080B80ED080B0DE0264890ED081BB0EE82
:10223000410AF0EE610A51EC100B02F049FD214A0F
:10224000C2E9080105AA05215046FEF730FC0A281C
:102250007ED19DF81400303800EE100AB8EEC00AA6
:10226000DFED200A20EE200A9DF81500303800EE40
:10227000900AF8EEE00AB2EE041A00EE810A9DF828
:102280001600303800EE900AF8EEE00A30EE200A30
:1022900010EE101A084603F0DBF90A4AC2E90601FB
:1022A0009DF81700303800EE100AB8EEC00AF2EEC2
:1022B000040A19E0244750524D43000024474E526F
:1022C0004D43000098000020CDCCCC3D0AD7233CE4
:1022D0006F12833A17B7D1380000000000004E405B
:1022E000ACC527370000C84220EE200A9DF8180030
:1022F000303800EE900AF8EEE00AB7EE001A00EE71
:10230000810A9DF81A00303800EE900AF8EEE00AD3
:102310001FED131A00EE810A9DF81B00303800EE05
:10232000900AF8EEE00A1FED171A00EE810A9DF8F8
:102330001C00303800EE900AF8EEE00A1FED1C1A7F
:1023400000EE810A9DF81D00303800EE900A00E092
:1023500027E0F8EEE00A1FED211A00EE810A10EEE8
:10236000101A084603F074F941EC180B1FED260B08
:1023700053EC102B51EC180B02F06AFD41EC190BD9
:10238000824890ED061BB0EE410AF0EE610A53EC74
:10239000102B51EC190B02F0A7FC7C4AC2E9060194
:1023A0009DE005AA05215046FEF781FB0B287DD153
:1023B0009DF81400303800EE100AB8EEC00A5FED48
:1023C000370A20EE200A9DF81500303800EE900AFA
:1023D000F8EEE00AB2EE041A00EE810A9DF816004B
:1023E000303800EE900AF8EEE00A30EE200A10EEE7
:1023F000101A084603F02CF9644AC2E906019DF858
:102400001700303800EE100AB8EEC00AF2EE040AE7
:1024100020EE200A9DF81800303800EE900AF8EE01
:10242000E00AB7EE001A00EE810A9DF81A00303873
:1024300000EE900AF8EEE00A1FED5D1A00EE810A48
:102440009DF81B00303800EE900AF8EEE00A1FED10
:10245000611A00EE810A9DF81C00303800EE900AE7
:10246000F8EEE00A1FED661A00EE810A9DF81D00E5
:10247000303800EE900AF8EEE00A1FED6A1A00EE1E
:10248000810A9DF81E00303800EE900AF8EEE00A4E
:102490001FED6D1A00EE810A10EE101A084603F0C7
:1024A000D7F841EC180B1FED740B00E017E053EC6C
:1024B000102B51EC180B02F0CBFC41EC190B3348FC
:1024C00090ED061BB0EE410AF0EE610A53EC102BC2
:1024D00051EC190B02F008FC2C4AC2E9060105AACE
:1024E00006215046FEF7AEFA9DF81400452805D1A6
:1024F000264890ED060B80ED060B0DE0234890ED8D
:10250000061BB0EE410AF0EE610A51EC100B02F02E
:10251000DFFB1E4AC2E906011C4890F85100012861
:1025200002D11B49087002E00020194908701748C1
:102530000068801C17490860144800791649086033
:1025400008E01248C07A012804D001200F49C8725F
:1025500000F0F6FB05A911A0FDF7CEFE98B905AA7B
:1025600003215046FEF76EFA022800D09FE49DF842
:10257000150030389DF81410303901EB810100EB63
:1025800041000249087400BF91E400009800002057
:102590003A0000203000002034000020244750473B
:1025A00053560000F0B503460C461546642093FBD5
:1025B000F0F0C6B2642093FBF0F700FB1730C1B215
:1025C000132E02DD01F16400C1B20846CF1701EB02
:1025D000977701EBA707BAB2072092FBF0F700FB51
:1025E000172082B25719601EDFF82CC01CF80000BB
:1025F000384482B2CF1701EB9777BF10A1EB870762
:102600001FB9032C01DA501E82B2072092FBF0F7AB
:1026100000FB1720C0B2F0BD3C57000830B50346A0
:102620000024D88940F2B271884204DBD88940F690
:102630003301884201DD002030BD40F2B2750AE06E
:102640002846FEF77BFC10B11D48044401E01D48FC
:102650000444681C85B2D889A842F1DC002511E049
:102660001948405D40F2A32110FB01F004EBC014B7
:10267000D889FEF763FC18B1012D01D11348044439
:10268000681C85B25879401EA842E9DC1879401EC2
:1026900040F2A32110FB01F004EBC0149878C0EBCA
:1026A0004011C1EB002004EB00145878C0EB00107F
:1026B00004EB8004187804441C612046BCE7000049
:1026C0000085E2018033E101485700088051010094
:1026D0001CB500242748006840F002002549086026
:1026E00024481430006840F48050224914310860B6
:1026F0000020012103460222CDE9001038211E48A6
:10270000FEF742F8052203211B48FEF71DF80522BB
:1027100004211948FEF718F8052211461648FEF75D
:1027200013F814480C38006840F4805011490C39F3
:1027300008600846006820F48050086000BF44F438
:10274000007444F4807444F0040400BF44F00204B4
:1027500044F0010444F0380400BF44F0400407484A
:102760000480808B20F4006004498883FF2000F0FF
:1027700007F81CBD30380240000402400030014020
:10278000014600BF0948008900F002000028F9D086
:102790000648818100BF0548008900F0010000283B
:1027A000F9D002488089C0B2704700000030014073
:1027B00000F00700084909884FF6C7721140064A21
:1027C00011801146098841EAC0011180114609882B
:1027D00041F0400111807047003001401CB50024D9
:1027E0002D48006840F002002B4908602A4810304C
:1027F000006840F4804028491031086000200090B3
:1028000003460122891401902448FDF7BDFF0120F1
:10281000234908600020012103460222CDE900106F
:102820004FF4C0411D48FDF7AFFF05220D211B48A5
:10283000FDF78AFF05220E211848FDF785FF16488F
:102840001038006840F48040134910390860084689
:10285000006820F48040086000BF44F4007444F431
:10286000807444F0040400BF44F0020444F0010406
:1028700044F0380400BF44F040040A48048009488A
:102880001C30008820F4006006491C310880FF20BD
:1028900000F00AF81CBD000030380240000402407D
:1028A000B082404200380040014600BF0A4800881C
:1028B00000F002000028F9D00748001D018000BF89
:1028C0000548008800F001000028F9D00248001DEA
:1028D0000088C0B2704700000838004000F00700D0
:1028E000084909884FF6C7721140064A11801146FF
:1028F000098841EAC00111801146098841F0400170
:10290000118070470038004070B5034624242A4DDA
:102910002A4E368805EB46252C705024264D274E2E
:10292000368805EB46256C705424234D234E36889B
:1029300005EB4625AC7065241F4D204E368805EB0F
:102940004625EC70541C1C4D1C4E368805EB462564
:102950002C71194C194D2D8804EB4524637100200E
:1029600009E00D5C144C154E368804EB4626841D98
:102970003555441CA0B29042F3DBFF250E4C0F4EA0
:10298000368804EB4626941D35550A250A4C0B4E15
:10299000368804EB4626D41D3555084C2488641C23
:1029A000064D2C802C462488142594FBF5F605FB57
:1029B0001644024D2C8070BD801700206C00002052
:1029C00010B50278C82A00DD10BD4279432A03D031
:1029D0004279562A00D0F7E724232D4A2D4C24882B
:1029E00002EB442213705022294B2A4C248803EB1B
:1029F00044235A705422264B264C248803EB44234C
:102A00009A706722224B234C248803EB4423DA700C
:102A100003781F4A1F4C248802EB442213710021C3
:102A200009E0435C1A4A1B4C248802EB44244A1DEB
:102A3000A3544A1CD1B202788A42F2DC2422144BFD
:102A4000144C248803EB44235A71FF23104A114C81
:102A5000248802EB44240278521DA3540A230C4A12
:102A60000C4C248802EB44240278921DA354094A9A
:102A70001288521C074B1A801A461288142392FBA4
:102A8000F3F403FB1422034B1A8000BF9CE7000001
:102A9000801700206C0000202DE9F04106460F460B
:102AA000142524213848394A128800EB422001704D
:102AB00050213548354A128800EB4220417054219C
:102AC0003148324A128800EB422081706C202E4936
:102AD0002E4A128801EB4221C87014212A482B4A41
:102AE000128800EB4220017127482849098800EB31
:102AF0004120007900EB80002349244A128801EB31
:102B000042210871002419E0381D001B052190FBAB
:102B1000F1F201FB120000EB800006EB80081A497D
:102B20001A4A128801EB422204FB05F1491D501894
:102B300014224146FDF79AFB601C84B2052CE3DBAE
:102B4000FF211148114A128800EB422205EB850053
:102B5000401D11540A210C480C4A128800EB4222F5
:102B600005EB8500801D115408480088401C07496A
:102B7000088008460088142190FBF1F201FB120046
:102B800002490880BDE8F081801700206C00002019
:102B900024203649364A128801EB42210870502021
:102BA0003249334A128801EB4221487054212F48A0
:102BB0002F4A128800EB4220817061202B492C4A59
:102BC000128801EB4221C87014212848284A128833
:102BD00000EB422001712748006B2449244A1288E7
:102BE00001EB4221C1F805002248406B1F49204AF1
:102BF000128801EB4221C1F809001E48806B1B4975
:102C00001B4A128801EB4221C1F80D001948C06B24
:102C10001649174A128801EB4221C1F811001548E4
:102C2000016C1248124A128800EB4220C0F81510BD
:102C3000FF200E490E4A128801EB422148760A21F4
:102C40000A480B4A128800EB422081760848008827
:102C5000401C0749088008460088142190FBF1F2C7
:102C600001FB120002490880704700008017002015
:102C70006C0000209800002030B52E4B18681B1DFA
:102C800019682C4B18331A6824232B4C2B4D2D8894
:102C900004EB452423705023274C284D2D8804EB4A
:102CA000452463705423244C244D2D8804EB452483
:102CB000A3707A24204B214D2D8803EB4523DC7033
:102CC0000C241D4B1D4D2D8803EB45231C711A4B05
:102CD0001A4C248803EB4423C3F80500164B174C09
:102CE000248803EB4423C3F80910134B134C2488A6
:102CF00003EB4423C3F80D20FF240F4B0F4D2D8809
:102D000003EB45235C740A230B4C0C4D2D8804EB1C
:102D10004524A374094B1B885B1C084C2380234665
:102D20001B88142493FBF4F504FB1533034C238018
:102D300030BD0000107AFF1F801700206C000020BB
:102D400010B52DED028B6C486C49098800EB4120D1
:102D5000441D24206849694A128801EB4221087009
:102D600050206549654A128801EB42214870542081
:102D70006149624A128801EB4221887074205E49E1
:102D80005E4A128801EB4221C87042205A495B4AD0
:102D9000128801EB4221087159480068641C44F80C
:102DA000010C57480079E07055484079207154482B
:102DB000C088A4F8050052480089A4F807005048CC
:102DC000807A60724E48C07AA0724D48C068C4F8DC
:102DD0000B004B48007CE073494890ED061BB0EEB9
:102DE000410AF0EE610A9FED471B53EC112B51ECA9
:102DF000100B02F003FA41EC180B02F081F920618C
:102E00003F4890ED081BB0EE410AF0EE610A9FEDDD
:102E10003D1B53EC112B51EC100B02F0EFF941EC80
:102E2000180B02F06DF960613548806AA061344882
:102E3000C06AE0613248006B20623148406B6062DA
:102E40002F48806BA0622E48C06BE0622C48006C5B
:102E500020632B4890F8440084F83400284890F808
:102E6000450084F83500264890F8460084F836007E
:102E7000234890F8470084F83700214890F848002C
:102E800084F838001E48C06CC4F839001C4890F81B
:102E9000500084F83D001A4890F8510084F83E0034
:102EA000174890F8520084F83F00154890F85300F6
:102EB00084F84000641EFF200F49104A128801EB7D
:102EC000422181F847000A210B480C4A128800EB86
:102ED000422080F8481009480088401C07490880B3
:102EE00008460088142190FBF1F201FB120003490F
:102EF0000880BDEC028B10BD801700206C00002004
:102F00009800002000000000D012634124202649D0
:102F1000264A128801EB4221087050202249234A98
:102F2000128801EB4221487054211F481F4A128821
:102F300000EB4220817075201B491C4A128801EB6E
:102F40004221C87002211848184A128800EB42201A
:102F50000171D2201449154A128801EB42214871AF
:102F60006E211148114A128800EB42208171FF2125
:102F70000D480E4A128800EB4220C1710A210A480E
:102F80000A4A128800EB4220017208480088401C5F
:102F90000649088008460088142190FBF1F201FBE5
:102FA0001200024908807047801700206C00002042
:102FB00010B586B05448C068059001A801F088F9A2
:102FC00024205249524A128801EB422108705020B5
:102FD0004E494F4A128801EB4221487054204B4918
:102FE0004B4A128801EB4221887052204749484AD7
:102FF000128801EB4221C87020204449444A1288BB
:1030000001EB4221087141484149098800EB412008
:10301000441D7E20207003206070BDF81200608087
:103020009DF8091021719DF8081061719DF8071035
:10303000A1719DF80610E1719DF8051021729DF8AF
:10304000041061720021A01C61812F4890ED081BC3
:10305000B0EE410AF0EE610A9FED2E1B53EC112BEE
:1030600051EC100B02F0C8F902D24E21217301E09D
:1030700053212173244890ED061BB0EE410AF0EE77
:10308000610A9FED241B53EC112B51EC100B02F045
:10309000B3F902D24521617301E0572161731A49E6
:1030A000D1E90821C4F80E20C4F812101649D1E95C
:1030B0000621C4F81620C4F81A10184A1E2120460A
:1030C00001F0F2F9E083FF201049114A128801EB68
:1030D000422181F825000A200C490D4A128801EB93
:1030E000422181F826000A480088401C08490880CF
:1030F00008460088142190FBF1F201FB12000449FC
:10310000088006B010BD0000980000208017002045
:103110006C00002000000000000000008001002082
:1031200070B586B006460D4605EB85008500059610
:1031300001A801F0CDF824205249534A128801EB2E
:103140004221087050214F484F4A128800EB42201C
:10315000417054214B484C4A128800EB4220817048
:1031600052204849484A128801EB4221C870202168
:103170004448454A128800EB4220017141484249C7
:10318000098800EB4120441D7E20207001206070E2
:10319000BDF8120060809DF8091021719DF808109B
:1031A00061719DF80710A1719DF80610E1719DF8FD
:1031B000051021729DF8041061723448B5FBF0F0DF
:1031C00081B2A01C6181324890ED081BB0EE410A2B
:1031D000F0EE610A9FED2F1B53EC112B51EC100BFD
:1031E00002F00AF902D24E21217301E0532121732A
:1031F000274890ED061BB0EE410AF0EE610A9FED04
:10320000251B53EC112B51EC100B02F0F5F802D2F8
:103210004521617301E0572161731D49D1E90821FE
:10322000C4F80E20C4F812101949D1E90621C4F8D7
:103230001620C4F81A10194A1E21204601F034F94C
:10324000E083FF200F49104A128801EB422181F8E8
:1032500025000A200B490C4A128801EB422181F813
:10326000260009480088401C074908800846008855
:10327000142190FBF1F201FB12000349088006B013
:1032800070BD0000801700206C00002040420F003D
:1032900098000020000000000000000080010020D5
:1032A00010B586B05448806A059001A801F010F866
:1032B00024205249524A128801EB422108705020C2
:1032C0004E494F4A128801EB4221487054204B4925
:1032D0004B4A128801EB4221887052204749484AE4
:1032E000128801EB4221C87020204449444A1288C8
:1032F00001EB4221087141484149098800EB412016
:10330000441D7E20207000206070BDF81200608097
:103310009DF8091021719DF8081061719DF8071042
:10332000A1719DF80610E1719DF8051021729DF8BC
:10333000041061720021A01C61812F4890ED081BD0
:10334000B0EE410AF0EE610A9FED2E1B53EC112BFB
:1033500051EC100B02F050F802D24E21217301E023
:1033600053212173244890ED061BB0EE410AF0EE84
:10337000610A9FED241B53EC112B51EC100B02F052
:103380003BF802D24521617301E0572161731A496C
:10339000D1E90821C4F80E20C4F812101649D1E969
:1033A0000621C4F81620C4F81A10184A1E21204617
:1033B00001F07AF8E083FF201049114A128801EBEE
:1033C000422181F825000A200C490D4A128801EBA0
:1033D000422181F826000A480088401C08490880DC
:1033E00008460088142190FBF1F201FB1200044909
:1033F000088006B010BD0000980000208017002053
:103400006C0000200000000000000000800100208F
:10341000012809D10021104A116001210F4AC2F888
:1034200084120F4A117015E002280AD101210A4ABC
:1034300011600021094AC2F884120221084A117061
:1034400008E00121044A1160044AC2F884120021F4
:10345000034A117070470000888240420080404259
:103460005800002010B58CB00446343434F82C0CCD
:103470000190207C0290607C0390A07C0490E07C12
:103480000590207D0690A0690790207F0890607FBE
:103490000990A07F0A90E07F343C0B902C2201A978
:1034A0000020FDF719F801200CB010BDF0B504465E
:1034B0000D4616461F461448006840F001001249A8
:1034C000086000201049083108600F4800680F4963
:1034D00008400D4908600E48091D0860081F006873
:1034E00040F48020091F0860002007490C31086063
:1034F0003B4632462946204600F00CF8002108469B
:10350000FDF70CFEF0BD000000380240FFFFF6FEA4
:1035100010300024F0B504460D4600210020364E40
:10352000366846F48036344F3E6001E04E1CB1B23E
:10353000314E366806F400361EB941F6FF76B142C8
:10354000F4DB41F6FF76B14201D1012052E02A4E70
:103550000836366846F41046274F08373E60264E38
:10356000366826F08076244F3E6045EA84160127AF
:10357000C7EB520746EA074646EA036646F480066A
:103580001D4F3F1D3E603E1F366846F080763F1F50
:103590003E6000BF184E366806F00076002EF9D067
:1035A000164E366846F48076144F3E603E463668C6
:1035B00046F400763E603E46366846F480663E60DD
:1035C0003E46366846F005063E600B4E08363668C5
:1035D00026F00306084F08373E603E46366846F040
:1035E00002063E6000BF044E0836366806F00C0640
:1035F000082EF8D1F0BD000000380240003C024027
:103600004FF08040008C20F008004FF0804108848B
:103610000846008C20F0020008840846008B40F029
:10362000600008830846008A20F0020008820846ED
:10363000808940F0020088811E200149088070477F
:103640007E0000204FF08040008C20F400404FF0BE
:10365000804108840846008C20F400500884084605
:10366000008A20F0100008820846808940F010008F
:1036700088810846008C40F480500884012001496C
:10368000087070473B0000204FF08040008C20F411
:1036900000404FF0804108840846008C20F4005020
:1036A00008840846008A20F0100008820846008C32
:1036B00020F4805008840846808920F0100088811A
:1036C00000200149087070473B0000204FF0804007
:1036D000008A00F00400002847D04FF08040808925
:1036E00000F0040070B34FF08040806B8D4908609B
:1036F0008D48806A8D49086001208D4908708007D7
:10370000008C20F010004FF080410884084680892A
:1037100020F0040088810846008A20F00400088216
:10372000804800684CF2503188420AD28806008AEC
:1037300000F00100002804D07C480068401C7B4950
:10374000086098E04FF08040008C20F010004FF0AF
:10375000804108840846808920F00400888108465A
:10376000008A20F00400088285E04FF08040008A43
:1037700000F01000002860D04FF08040808900F0F9
:103780001000002846D04FF08040006C6949086066
:103790006548806A684908604FF08040008C20F4DA
:1037A00080504FF0804108840846808920F0100046
:1037B00088810846008A20F0100008825D48006871
:1037C0004CF25031884209D28806008A00F001008C
:1037D00020B159480068401C5749086002205749E9
:1037E000087051480079C01C554908700846007897
:1037F000142190FBF1F04C490968084451490860D4
:103800004F480078142190FBF1F201FB12004C4963
:10381000087030E04FF08040008C20F480504FF072
:10382000804108840846808920F01000888108467D
:10383000008A20F0100008821DE04FF08040008ACE
:1038400000F00100B8B13848806A401C36498862EF
:103850004FF08040008A20F001004FF08041088244
:10386000314890F85100012802D13749087002E030
:103870000020354908704FF08040008A00F00200B7
:1038800000284DD04FF08040808900F00200A0B3A6
:103890002E4800682E49096808442C4908604FF0FA
:1038A0008040406A096808444FF0804148622748D8
:1038B000006827490968401A244908601A48806A44
:1038C00024490968884203D0224800681649886262
:1038D0000120214908708007008C20F001004FF082
:1038E000804108840846808920F0020088810846CB
:1038F000008A20F00200088212E0FFE74FF08040CB
:10390000008C20F001004FF0804108840846808937
:1039100020F0020088810846008A20F00200088218
:103920007047000018000020980000201C000020B4
:103930001600002044000020480000203B0000202A
:10394000400000203C00002039000020280000201A
:103950008000002020000020240000207CB50446C8
:103960000D468148006840F001007F4908607E48AC
:103970002038006840F001007B4920390860084683
:10398000006820F00100086077481038006840F0B7
:103990000200754910390860002001210346022207
:1039A000CDE9001089027148FCF7EEFE01220A21E0
:1039B0006E48FCF7C9FE00204FF08041088508469C
:1039C000C462808B40F0600088830846808B40F0A2
:1039D000080088830846008C40F4807008840846FC
:1039E000008C20F4007008840846C563008840F00D
:1039F000800008805C481038006840F001005A4997
:103A0000103908600020012103460222CDE9001090
:103A100011465748FCF7B8FE012211465448FCF7FE
:103A200093FE4FF08040008B40F480704FF0804157
:103A300008830846008B20F4007008830846008B3A
:103A400008830846008B08830846008C20F080001D
:103A500008840846008C20F0200008840846008A6C
:103A600020F0040008820846808920F00400888144
:103A70000846008C20F0100008843B48103800688D
:103A800040F0020038491039086000200121034647
:103A90000222CDE90010C9023448FCF775FE01226C
:103AA0000B213248FCF750FE4FF08040808B40F4F1
:103AB00080704FF0804188830846808B20F400702E
:103AC00088830846008C20F4004008840846008C57
:103AD00020F4005008840846008A20F01000088274
:103AE0000846808920F0100088810846008C20F468
:103AF00080500884601C400848630846008B20F012
:103B0000800008830846008B20F070000883084678
:103B1000008B40F0080008830846008B20F004006A
:103B200008830846008B20F00300088302231C2230
:103B300001210020FDF7A2FA4FF08040008A20F01A
:103B400001004FF0804108820846808940F0010062
:103B500088810846808A40F00100888208460088F3
:103B600040F0010008807CBD403802400004024063
:103B7000000002404FF08040008C20F080004FF0A9
:103B8000804108840846008C20F020000884084604
:103B9000008A20F0040008820846808940F0040072
:103BA00088810846008C40F0100008841E200149DE
:103BB000087070477C00002010B51D48006840F078
:103BC00010001B4908601A482038006840F01000B7
:103BD0001749203908600846006820F01000086086
:103BE00040F2CF701349088540F2E140C8620846B0
:103BF000008840F080000880022336220321184606
:103C0000FDF73CFA0B48808A40F0010009498882A0
:103C10000846008A20F0010008820846808940F0AA
:103C2000010088810846008840F00100088010BD2E
:103C3000403802400010004010B53448008A00F0BF
:103C4000010010B33148808900F00100E8B12F482D
:103C5000008A20F001002D4908822D480079401C7F
:103C60002B49087108460079142190FBF1F201FB01
:103C70001200274908710846007918B908460068FB
:103C8000401C0860FDF79EF900BF22480078E0B1B3
:103C900020480078401E1F49087008460078A0B9E7
:103CA0004FF08040008C20F010004FF080410884DD
:103CB0000846808920F0040088810846008A20F0A8
:103CC0000400088202201449087014480088E0B1FA
:103CD00012480088401E1149088008460088A0B993
:103CE0004FF08040008C20F001004FF080410884AC
:103CF0000846808920F0020088810846008A20F06A
:103D00000200088202200649087010BD0010004021
:103D1000980000207C000020160000207E0000207B
:103D200024000020F0B52DED028B83B005460E4631
:103D300000F086F83E4905FB01F000EE100AF8EEAF
:103D4000400A300100EE100AB8EE400A80EE801AF8
:103D5000B0EE418ABCEEC80A10EE100A84B200EE42
:103D6000104AB8EE400A38EE400AF3EE000A20EEA0
:103D7000200ABCEEC00A10EE107A4FF6FF7000EA7F
:103D80000414E01984B22B48006840F0010029496E
:103D9000086028481430006840F0100025491431AC
:103DA000086024480C38006840F0100021490C39A4
:103DB00008600846006820F01000086001200090AC
:103DC000002302224FF4C06101901B48FCF7DCFC89
:103DD00007220A211848FCF7B7FC072209211648D8
:103DE000FCF7B2FC15480481808920F40040134997
:103DF00088810846808A40F0800088820846808951
:103E000040F008008881084680880846808A40F093
:103E1000400088820846808940F004008881084676
:103E2000808940F40050888103B0BDEC028BF0BD66
:103E300040420F00303802400000024000100140B4
:103E400070B542484149403902220423404C24685D
:103E500044F480043E4D2C60046824F001040460A6
:103E600004E0046804F0010404B900E0F9E700BFCD
:103E7000441A103C1825B4FBF5F4E2B2062A0ADB1A
:103E8000CC68951F05EB45056D0010353D26AE400D
:103E90003443CC6020E0042A09DBCC68151F05EB15
:103EA00045056E003D25B5402C43CC6014E0022A48
:103EB0000ADB8C68951E05EB45056D0010353D2627
:103EC000AE4034438C6007E08C6802EB42056E0024
:103ED0003D25B5402C438C601E4C84601E4CC46054
:103EE0004FF48064446000240460046824F0C0043B
:103EF0000460046844F480740460046824F400746A
:103F00000460046844F480640460046824F4C054C9
:103F10000460046824F4C0440460046824F4403459
:103F20000460046824F4C0040460046824F0C074CD
:103F30000460046844EA43640460046824F01004E4
:103F40000460046844F00104046070BD40640240F1
:103F50003038024004100140803F002070B54248D4
:103F60004149283901220523404C246844F4800447
:103F70003E4D2C60046824F00104046004E00468F1
:103F800004F0010404B900E0F9E700BF441A103C52
:103F90001825B4FBF5F4E2B2062A0ADBCC68951FBB
:103FA00005EB45056D0010353D26AE403443CC6031
:103FB00020E0042A09DBCC68151F05EB45056E00DF
:103FC0003D25B5402C43CC6014E0022A0ADB8C6806
:103FD000951E05EB45056D0010353D26AE4034437A
:103FE0008C6007E08C6802EB42056E003D25B54011
:103FF0002C438C601E4C84601E4CC4604FF40074D3
:10400000446000240460046824F0C0040460046870
:1040100044F480740460046824F400740460046848
:1040200044F480640460046824F4C05404600468A8
:1040300024F4C0440460046824F440340460046838
:1040400024F4C0040460046824F0C07404600468AC
:1040500044EA43640460046824F0100404600468C3
:1040600044F00104046070BD28640240303802400E
:104070000414014080050020F0B52DED028B83B0C3
:1040800005460E46FFF76AFF00F096F8464905FB25
:1040900001F000EE100AF8EE400A300100EE100ABE
:1040A000B8EE400A80EE801AB0EE418ABCEEC80A33
:1040B00010EE100A84B200EE104AB8EE400A38EE54
:1040C000400AF3EE000A20EE200ABCEEC00A10EE11
:1040D000107A4FF6FF7000EA0414E01984B23348F6
:1040E000006840F00400314908603048143000682E
:1040F00040F020002D49143108602C480C3800682D
:1041000040F0200029490C3908600846006820F07A
:10411000200008600020012103460222CDE90010A2
:10412000C0212348FCF730FB082206212048FCF779
:104130000BFB082207211E48FCF706FB1D480480E4
:10414000001D008820F400401A49091D0880194804
:104150000C30008840F0800016490C31088015486A
:10416000001D008840F008001249091D0880114810
:10417000001F00880F480C30008840F040000D49B7
:104180000C3108800B48001D008840F004000949EC
:10419000091D08800846008840F40050088003B0DC
:1041A000BDEC028BF0BD000040420F0030380240F1
:1041B000000802400814014070B542484149A03946
:1041C00006220523404C246844F480043E4D2C60B4
:1041D000046824F00104046004E0046804F00104AD
:1041E00004B900E0F9E700BF441A103C1825B4FBFD
:1041F000F5F4E2B2062A0ADBCC68951F05EB45050B
:104200006D0010353D26AE403443CC6020E0042ADA
:1042100009DBCC68151F05EB45056E003D25B54053
:104220002C43CC6014E0022A0ADB8C68951E05EB57
:1042300045056D0010353D26AE4034438C6007E0E7
:104240008C6802EB42056E003D25B5402C438C6026
:104250001E4C84600024C460642444600024046014
:10426000046844F040040460046824F4807404602A
:10427000046824F400740460046844F480640460F6
:10428000046824F4C0540460046824F4C044046046
:10429000046824F440340460046824F4C004046016
:1042A000046824F0C0740460046844EA4364046051
:1042B000046824F010040460046824F0010404601D
:1042C00070BD0000A0640240303802400414014078
:1042D000F0B504460025002627693348B7FBF0F502
:1042E00040F2B2760EE03046FCF728FE30B1B5F56C
:1042F000B77F02D3A5F5B77502E006E0A5F26D150C
:10430000701C86B2B5F5B67FEDD800BFE6810026F9
:1043100015E0E089FCF712FE30B1012E04D11D2D0D
:1043200001D31D3D09E00CE02048805DA84203D880
:104330001E48805D2D1A00E003E0701C86B21C2D23
:10434000E7D200BF701C6071681C20711648B7FB73
:10435000F0F100FB11754FF46160B5FBF0F0A07057
:104360004FF46160B5FBF0F100FB11503C21B0FB54
:10437000F1F060704FF46160B5FBF0F100FB11509B
:104380003C21B0FBF1F201FB12002070227961792F
:10439000E089FEF707F9E070E089642190FBF1F213
:1043A00001FB1200A071F0BD8051010048570008C8
:1043B0004FF0E021096921F004014FF0E022116182
:1043C000C21700EB5272C2F3C702074B1A701946AC
:1043D000097801EB4102C2EBC1114FF6FF7202EA0C
:1043E000C101024A118070475A0000205C00002081
:1043F00070B504464FF4077094FBF0F0C6B24FF46A
:10440000077094FBF0F100FB114085B205E04FF41A
:10441000077000F02BF8701EC6B2002EF7D115B150
:10442000284600F023F870BD014601B970470E4AD6
:1044300012784A434FF0E0235A6100229A61012228
:104440001A6100BF4FF0E022106900F001021AB1BA
:1044500000F48032002AF5D000224FF0E0231A61E8
:104460009A6100BFE2E700005A00002001460D4AB1
:1044700012884A434FF0E0235A6100229A610122D8
:104480001A6100BF4FF0E022106900F001021AB17A
:1044900000F48032002AF5D000224FF0E0231A61A8
:1044A0009A6170475C000020F0B503460C464FF659
:1044B000FF7100250BE013F8016BC8B280EA060714
:1044C0004FEA112C52F8270080EA0C016D1CA5421E
:1044D000F1D388B2F0BDF0B503460024002617E002
:1044E0002046641C002506E000F0010C0CFB03F7DD
:1044F000400878406D1C082DF6DB4FF0010C0CFADB
:1045000001FCACF1010C0CEA000C42F804CB761C67
:10451000FF2EE5DDF0BD00001CB50948006840F045
:10452000040007490860002006490860009003461F
:104530000122110201900448FCF726F91CBD00007D
:1045400030380240A0024142000802401CB5094830
:10455000006840F002000749086000200090034610
:104560000122062101900448FCF70EF90020FEF715
:104570004FFF1CBD303802400004024010B5FEF76A
:104580002DF90420FEF7AAF910BD00002DED088BCF
:10459000CCB00026B046B246B14600279FEDF70BDF
:1045A000B0EE408AF0EE608A0A20FFF701FF4FF478
:1045B000FA70FFF71DFF4FF4FA70FFF719FF07239A
:1045C00002220A216420FEF771FF3220FFF7F0FE7D
:1045D000FA20FFF70DFFFCF70BFCFCF769FCE9483C
:1045E0000168E9480068FFF7B9F9FA20FFF700FF12
:1045F0000220E649087048702BE3E5480079092855
:1046000003DB17B90127FCF7E3FEE14890F8480007
:1046100001281DD1DF480078022809D1DE48016851
:10462000DE480068FEF77CFD0320DA4908700FE0E1
:10463000D848007803280BD1D9480178D9480068B8
:10464000FBF7D0FF012803D1D2490870FEF7FAFF2B
:10465000CF4890F85100012821D1D3480078012893
:1046600009D1D2480078012805D1FEF719FE0020B3
:10467000CE49087018E0CC480078022809D1CC480F
:104680000078012805D1FEF793FC0020C849087086
:104690000AE00020C5490870C549087004E0002000
:1046A000C2490870C2490870FDF7CAFBFDF710F94E
:1046B0006846FDF7D1FA064669463046FCF736FDF6
:1046C0000646FDF717FBB24840790C287ED2DFE89A
:1046D00000F00621FEFDFCFBFAF9F8F7F6F5AC4810
:1046E0000068782807D91420A84908700120A84933
:1046F0004871FEF725FB532E0BD19DF8000053287F
:1047000007D11420A14908700120A1494871FEF782
:1047100017FB97E29E4890F8440001282BD19C4853
:10472000C07A022827D19A48C068A249B0FBF1F2AA
:1047300001FB12007821B0FBF1F201FB1200772897
:104740004BD19348C168006B7730814245D35146C5
:104750004046FBF747FF01283FD18D48C068401C09
:1047600095490860002095490870FFF703FA052075
:104770008749487131E0864890F8440038BB844846
:10478000C07A022829D18248C0688A49B0FBF1F278
:1047900001FB12007821B0FBF1F201FB1200772837
:1047A0001BD17B48C168006B7730814215D35146DD
:1047B0004046FBF717FF01280FD17548C068401C21
:1047C0007D49086000207D49087001E02FE204E087
:1047D000FFF7D0F902206E4948716D48006B4845DB
:1047E00063D06B480068B0F5617F5ED96848006BA4
:1047F000F0B36748D0F830900146486B00F0AFFC4A
:1048000041EC190B6249086B00F0A9FC41EC1A0B52
:1048100053EC192B00F032FE41EC180B5C49886B0D
:1048200000F09DFC41EC1B0B9FED650B53EC102B36
:1048300000F0E4FC41EC1A0B9FED630B53EC102BE2
:1048400000F006FB41EC190B53EC182B00F00AFEAC
:1048500041EC180B9FED490B53EC102B51EC180B4E
:1048600000F090FC07D251EC180B00F031FA00E098
:104870001BE041EC180B9FED560B53EC102B51EC49
:10488000180B00F07FFC08D2282040494870012016
:104890003F4988725049086007E002203B49487050
:1048A00000203B4988724C4908603948407901280A
:1048B00029D1374890F84700012809E024E0ABE10E
:1048C00049E12AE11EE10AE1EBE0DFE088E036E0C1
:1048D0000BD12F48807A012807D128202B49087056
:1048E0000B202B494871FEF72BFA532E0BD19DF864
:1048F00000004B2807D12820244908700B202449A8
:104900004871FEF71DFA9DE1532E17D19DF8000066
:10491000532813D100201E4988722F4908600220B5
:104920001A49487000201A494863886314201749BF
:104930000870012016494871FEF702FA82E11F480B
:104940000478012C03D103201149487114E0022C92
:1049500003D104200E4948710EE01CB902200C4915
:10496000487109E002201D49087001224D20FDF721
:10497000CBFF01200649487164E1000000000000FF
:1049800000000000100000200C0000205E0000204D
:10499000980000203B000020440000204800002038
:1049A000400000203C00002058000020390000207A
:1049B0003A00002080510100200000201600002055
:1049C00000000000000034400000000065CDCD4133
:1049D0008DEDB5A0F7C6B03EA00241420000002018
:1049E0009C4800689C4908639C48006848639C4850
:1049F000006888630020C863086496480068994985
:104A0000097801EB8101984A42F821009348006837
:104A10009449097801EB810102EB810148609048DB
:104A200000689049097801EB810102EB81018860FF
:104A300000208C49097801EB810102EB8101C860FB
:104A40008849097801EB810102EB81010861854801
:104A50000078401C8349087008460078052190FBC7
:104A6000F1F201FB12007F4908707B4890F804A026
:104A7000006800F10208012077494871084690F863
:104A80005000012801D1FEF783F8DBE001207749CF
:104A9000087001224D20FDF737FF01206E49487153
:104AA000D0E073480478012C03D106206A4948718C
:104AB00014E0022C03D10720674948710EE01CB9AD
:104AC00005206549487109E0022068490870012203
:104AD0005320FDF719FF01205F494871B2E0654896
:104AE00002685F48016864480068FBF72FFD63496E
:104AF0000860002062490870FEF782FD08205649D0
:104B000048719FE001205949087001225320FDF7A8
:104B1000FBFE01205049487194E059480578012D69
:104B200003D109204C49487114E0022D03D10A2019
:104B3000494948710EE01DB908204749487109E00C
:104B400003204A49087001225320FDF7DDFE0120B1
:104B50004149487176E03F4800683F4908633F4853
:104B6000006848633E48006888633A480068C86344
:104B7000424800680864374800683A49097801EB00
:104B80008101394A42F821003448006835490978E2
:104B900001EB810102EB8101486031480068314935
:104BA000097801EB810102EB8101886029480068E6
:104BB0002C49097801EB810102EB8101C8602F4883
:104BC00000682849097801EB810102EB8101086145
:104BD00024480078401C23490870084600780521C5
:104BE00090FBF1F201FB12001E4908701A4890F880
:104BF00004A0006800F1020822480088401C2149F6
:104C00000880012014494871084690F85000012896
:104C100001D1FDF7BDFF15E0042014490870012201
:104C20005320FDF771FE01200B4948710AE0012075
:104C30000E49087001225120FDF766FE0120064949
:104C4000487100BF00BF0448007910B9012F00D19E
:104C50000027D2E420000020980000201C00002043
:104C60001800002001000020F000002000000020BB
:104C700016000020100000200C000020280000205A
:104C8000240000201400002000B50F48C07A02283C
:104C900007D10E480078022815D00220FEF7B8FB95
:104CA00011E00948807A012807D1084800780128D6
:104CB00009D00120FEF7ACFB05E00448007810B1F4
:104CC0000020FEF7A5FB00BD980000205800002042
:104CD00081F00041704780F00040704721F00041B2
:104CE000704720F00040704710B591EA030F48BFAD
:104CF00083F0004300F1CA83841A71EB030C05D2E0
:104D0000121943EB0C03001B61EB0C01DFF824E1EB
:104D10004FEA1154A4EB135C1EEA430F18BF9EEA3E
:104D2000445F73D023EA0E03DCF1200E21EA045124
:104D300043F4801332D322FA0CFE10EB0E0023FA58
:104D40000CFE41EB0E01CCF1200E03FA0EFE10EB2F
:104D50000E0051F10001B1F5801FCCF1200E32D2CE
:104D600001EB045112FA0EF2BDE8104058BF704733
:104D7000401C38BF5FEA420218BF7047002814BFCA
:104D800020F0010041F100014FEA410313F5001F3B
:104D900038BF7047A1F1C04100F028BB012A43EBA6
:104DA0000302ACF1200CDCF11F0E32BF4FF0000EFD
:104DB00023FA0CF310EB030041EB0451B4EB115F49
:104DC000D0D0A1EB045101F5801149085FEA300011
:104DD00001EB04510ED350F1000038BF12FA0EFE61
:104DE00008D1BDE81040C9E7401C38BF5FEA420265
:104DF000CAD1C3E7BDE810404FEA410313F5001FD5
:104E000038BF7047A1F1C04100F0F0BA9EEA445F9C
:104E100008D011EA5E0FBDE8104004BF01F0004168
:104E200000207047BDE8104070B500F091FA00BF57
:104E300064FBBE3E0000E0FF491058BFC1F1404195
:104E40005B1058BFC3F140438B42EFF300807047C3
:104E50002DE9C04130B4DFF8A0C23CEA111418BFFC
:104E60003CEA131400F0EC8081EA03051CEA1114FB
:104E700044EAD57418BF1CEA131500F0C780A4EBF0
:104E800005044FF0004545EAC12145EAC32341EA44
:104E9000505143EA525304F17F74994204F50034AF
:104EA0004FEAC0204FEAC22208BF904200F09C8027
:104EB0004FEA13650FF24016765D4FEA134506FB85
:104EC00005F7C7F1807706FB07F74FEAD737A7FB4F
:104ED00003687642C8F58038A7FB06CE38BFA8F134
:104EE000010807FB08E64FF0000EA6FB028CE6FB6C
:104EF00003CEDCF1000CCEF1004E38BFAEF1010E56
:104F0000A6FB0C584FF000074FF00005E6FB0E879C
:104F1000A1FB08C6A0FB07CE16EB0E0645F1000567
:104F2000E1FB076515F1E04E7EBFA4F580345FEA32
:104F300046066D4116F1800745F100054FEA172737
:104F40004FEA066647EA0567A6F1DE46B6F1805FDE
:104F50004FEA15251FD9384624F0010C05EBC47122
:104F6000BCF1FE6F01EB0C1102D8F0BCBDE8008172
:104F700024425CBF01F5801E9EEAC47F02D4F0BCCF
:104F8000BDE80081244238D4F0BCA1F1C041BDE8A5
:104F9000004100F02BBA4FEAD22242EA43524FEAD4
:104FA000D323A7FB02864FEAD02040EA415007FBFB
:104FB00003661EEA0E0F4FEAD12105FB026658BFB9
:104FC000A6EB0056B6EB00564FEA520E4EEAC37EF1
:104FD00018EB0E0E56EB530EBDD518EB02085E41D2
:104FE0007F1C55F10005B6E74FF480154FF0000720
:104FF0004FF000064FF00008ADE7F0BC4FF00000A6
:1050000001F1C04101F00041BDE8008111EA0C1F2F
:105010000CEA131500D00CE013EA0C1F00F02580F9
:105020004FF00000F0BC81EA030101F00041BDE84F
:105030000081F0BCBDE8004181EA030100F0D6B96F
:10504000F0BCBDE8004170B500F082F9097EFC3E7D
:1050500000F007B881EA03014FF0000001F00041C1
:10506000704781EA030100F0C1B9F0BCBDE800411E
:105070004FF0000021497047FFFDFBF9F7F5F4F20E
:10508000F0EEEDEBE9E8E6E4E3E1E0DEDDDBDAD8E3
:10509000D7D5D4D3D1D0CFCDCCCBCAC8C7C6C5C441
:1050A000C2C1C0BFBEBDBCBBBAB9B8B7B6B5B4B358
:1050B000B2B1B0AFAEADACABAAA9A8A8A7A6A5A443
:1050C000A3A3A2A1A09F9F9E9D9C9C9B9A99999807
:1050D0009797969595949393929191908F8F8E8EAA
:1050E0008D8C8C8B8B8A8989888887878685858437
:1050F00084838382828181800000FF070000F87F23
:105100004FEA41034FEA5353A3F58063D3F11E03E3
:10511000C8BFD3F1210C0CDD4FF0004242EAC1229E
:1051200042EA505232FA03FC8CEAE17CACEBE170CB
:105130007047102BC4BF0020704703F5787CBCF18A
:10514000FF3F04D06FF0004282EA2100704770B543
:1051500000F0FEF84992248000207047F2E7B0FA90
:1051600080F310FA03F10AD0C3F11D0303F5806345
:105170004FEA41504FEA035202EBD12170474FF002
:105180000000704751EA030C17D41CF5801F58BF6C
:10519000BCF5801F00F10680994218BF704708BF18
:1051A0009042704707D711F5801F58BF13F5801F35
:1051B00019D499427047894270471CF5801F08D561
:1051C000BCF5801FF7D58B4218BF704708BF8242DD
:1051D00070474FF4001C1CEB410F38BF1CEB430F12
:1051E00001D28B42704770B500F0B2F892244900AA
:1051F0004FF000514FF08053FFF71EBEDFF848C15B
:1052000070B51CEA111E1EBF1CEA13159EEA0C0F96
:1052100095EA0C0F00F06F8081EA030423EA4C1337
:105220004EEAD47E21EA4C1141F4801143F48013FC
:10523000AE44A1FB024CA0FB0365AEF17F7E3619A4
:1052400055EB0C05A1FB034C4CF10003A0FB021C29
:1052500016EB0C06654153F10003094218BF46F0F6
:10526000010613F4007F0BD14FEA03314FEA0530FA
:10527000340341EA155140EA16506FF003020AE088
:105280004FEAC3214FEAC520F40241EA555140EAF2
:1052900056506FF0020202EB2E4201EB025585EAF6
:1052A000CE710AD05FEA440C18BF24F0004450F1DC
:1052B000000041F1000120EAD47040F2FE7C62451A
:1052C00000D270BDA84214BF4FF080444FF040445C
:1052D000002E08BF0024BEF1806FA8BFA1F1C0411D
:1052E000BDE8704080F282804FF0000001F1C041C3
:1052F00001F0004170479EEA0C0F0CEA131518BF2D
:1053000095EA0C0F06D04FF0000081EA030E0EF074
:10531000004170BD00F01CF88900013E00F007B8A4
:1053200000F009B84FEA430C5FEA5C5C08D081EA00
:10533000030100F05BB84FEA410C5FEA5C5CF6D118
:105340004FF00000014970470000FF070000F87FA0
:105350000EF1020E2EF0030E5EF8046B364205D4F9
:10536000012A43EB030515F5001F12D8012841EB74
:10537000010C1CF5001F0CD80ED14FEAD17C15F59D
:10538000001F0CEB4C0C0CF1020C08BF4CEBD37C57
:1053900004E04FF0080C01E04FEAD37C0CEB4C0525
:1053A00026FA05F606F00706B6F1040C06D20EEB57
:1053B000860CBDE870404CF0010C6047DFE80CF053
:1053C000090B02024FF000414FF00000A1F500214F
:1053D00070BD19461046012851EB010418BFD4F5E1
:1053E000001484BF002001F0004170BD0808A0F542
:1053F00000114FEA3101704753EA010C17D41CF534
:10540000801F58BFBCF5801F00F106808B4218BF7B
:10541000704708BF8242704707D713F5801F58BFF7
:1054200011F5801F19D48B4270479B4270471CF5C1
:10543000801F08D5BCF5801FF7D5994218BF70476B
:1054400008BF904270474FF4001C1CEB430F38BF5D
:105450001CEB410F01D2994270470FB40CBC03BC46
:10546000FFF7C1BE91EA030F10B581F000413FF58F
:1054700043AC83F0004300F009B8000010B591EA96
:10548000030F48BF83F000433FF536AC841A71EB3D
:10549000030C07D212198CF0004C43EB0C03001BD9
:1054A00061EB0C01DFF8A4E14FEA1154A4EB135CAB
:1054B0001EEA430F18BF9EEA445F00F0B08023EA63
:1054C0006E03524221EA0451C3EB6E0338BF5B1EE8
:1054D000DCF1200E25D322FA0CFE10EB0E0043FA6D
:1054E0000CFE41EB0E01CCF1200E03FA0EFE10EB88
:1054F0000E0051F10001CCF1200E29D412FA0EF267
:1055000001EB0451BDE8104058BF7047401C1CBF60
:10551000B2F1004F704700280CBF491C20F0010079
:10552000704712EB020E43EB030218BF4FF0010E5F
:105530004EEA4202ACF1200CDCF11E0E54D943FAC3
:105540000CFE10EB0E0051F1FF31CCF11E0ED5D543
:105550000EF1010E12FA0EFE404141EB010101EB8A
:10556000445C5FEA5C5C10D910EBDE7001EB045127
:1055700038BFBEF1004FBDE8104018BF704700288B
:105580000CBF491C20F00100704730D24FEAD42CE8
:1055900011F5001124F400641BD0B1FA81F20B3A2A
:1055A000A41AA41ED2F12003914030FA03F3194348
:1055B000904001EBCC71002C01EB0451BDE8104090
:1055C000A8BF704701F1C0414FF0000001F0004159
:1055D0007047B0FA80F310FA03F100D110BDE41A5D
:1055E000173C4805C90AE4E701EB045110BD491016
:1055F00001EB0451BDE810404FEA300002E04FF0EB
:10560000000170474A0008BF0042F8D0B2F5001F01
:1056100028BF704701F000414FF0000070479EEA3C
:10562000445F07D011EA5E0FBDE8104004BF0021BF
:1056300000207047BDE8104070B5FFF789FE00BF3D
:1056400040DFF63E83F00041104670470000E0FF67
:1056500043004FEAD30C4FEA3C0C43401FBF4007C6
:105660000CF1605113F0FE4F70471CF0006F03D136
:1056700000200CF0004170470CF0004343EA5070EA
:1056800010B540EACC0000F00EF800BF0000009218
:105690004FEA0001FFF7AABE4FF000414FF00000B3
:1056A000A1F5002170470EF1020E2EF0030E5EF8F8
:1056B000044B244204D44FEA4102B2F17F4F11D887
:1056C0004FEA4003B3F17F4F0CD80ED14FEAD07CA4
:1056D000B2F17F4F0CEB4C0C0CF1020C08BF4CEB01
:1056E000D17C04E04FF0080C01E04FEAD17C0CEBD8
:1056F0004C0324FA03F404F00704B4F1040C06D2BA
:105700000EEB840CBDE810404CF0010C6047DFE864
:105710000CF0070802024FF00040A0F5800010BD19
:105720000846420018BFD2F1807288BF00F00040E6
:1057300010BD4FF04070E1EE100A70470003030601
:1057400001040602050003051F1C1F1E1F1E1F1F4C
:105750001E1F1E1F74570008000000209800000044
:10576000C40100080C58000898000020486F000091
:10577000E001000800000000000000000000000040
:105780007FF0FA0220A107000000020000000000E4
:105790000000000000000000020000000000000007
:1057A00001000000000000000000000001000000F7
:1057B00000000000000000000000000000000000E9
:1057C00000000000000000000000000000000000D9
:1057D00000000000000000000000000000000000C9
:1057E00000000000000000000000000000000100B8
:1057F000000000000D00000000000000000000009C
:0C5800000000000000000000010000009B
:040000050800018965
:00000001FF
